{
  "_format": "hh-sol-artifact-1",
  "contractName": "HotelBooking",
  "sourceName": "contracts/HotelBooking.sol",
  "abi": [
    {
      "inputs": [
        {
          "internalType": "address",
          "name": "_paymentToken",
          "type": "address"
        }
      ],
      "stateMutability": "nonpayable",
      "type": "constructor"
    },
    {
      "anonymous": false,
      "inputs": [
        {
          "indexed": false,
          "internalType": "string",
          "name": "bookingId",
          "type": "string"
        },
        {
          "indexed": false,
          "internalType": "address",
          "name": "guest",
          "type": "address"
        },
        {
          "indexed": false,
          "internalType": "uint256",
          "name": "amount",
          "type": "uint256"
        },
        {
          "indexed": false,
          "internalType": "uint256",
          "name": "timestamp",
          "type": "uint256"
        },
        {
          "indexed": false,
          "internalType": "string",
          "name": "hotelId",
          "type": "string"
        },
        {
          "indexed": false,
          "internalType": "string",
          "name": "roomId",
          "type": "string"
        }
      ],
      "name": "BookingCreated",
      "type": "event"
    },
    {
      "anonymous": false,
      "inputs": [
        {
          "indexed": true,
          "internalType": "address",
          "name": "previousOwner",
          "type": "address"
        },
        {
          "indexed": true,
          "internalType": "address",
          "name": "newOwner",
          "type": "address"
        }
      ],
      "name": "OwnershipTransferred",
      "type": "event"
    },
    {
      "anonymous": false,
      "inputs": [
        {
          "indexed": false,
          "internalType": "string",
          "name": "bookingId",
          "type": "string"
        },
        {
          "indexed": false,
          "internalType": "address",
          "name": "guest",
          "type": "address"
        },
        {
          "indexed": false,
          "internalType": "uint256",
          "name": "amount",
          "type": "uint256"
        },
        {
          "indexed": false,
          "internalType": "uint256",
          "name": "timestamp",
          "type": "uint256"
        }
      ],
      "name": "RefundProcessed",
      "type": "event"
    },
    {
      "anonymous": false,
      "inputs": [
        {
          "indexed": false,
          "internalType": "address",
          "name": "guest",
          "type": "address"
        },
        {
          "indexed": false,
          "internalType": "uint256",
          "name": "amount",
          "type": "uint256"
        },
        {
          "indexed": false,
          "internalType": "uint256",
          "name": "timestamp",
          "type": "uint256"
        },
        {
          "indexed": false,
          "internalType": "string",
          "name": "reason",
          "type": "string"
        }
      ],
      "name": "TransactionFailed",
      "type": "event"
    },
    {
      "inputs": [
        {
          "internalType": "string",
          "name": "bookingId",
          "type": "string"
        },
        {
          "internalType": "string",
          "name": "hotelId",
          "type": "string"
        },
        {
          "internalType": "string",
          "name": "roomId",
          "type": "string"
        },
        {
          "internalType": "uint256",
          "name": "amount",
          "type": "uint256"
        },
        {
          "internalType": "uint256",
          "name": "checkIn",
          "type": "uint256"
        },
        {
          "internalType": "uint256",
          "name": "checkOut",
          "type": "uint256"
        }
      ],
      "name": "book",
      "outputs": [],
      "stateMutability": "nonpayable",
      "type": "function"
    },
    {
      "inputs": [
        {
          "internalType": "string",
          "name": "",
          "type": "string"
        }
      ],
      "name": "bookings",
      "outputs": [
        {
          "internalType": "address",
          "name": "guest",
          "type": "address"
        },
        {
          "internalType": "uint256",
          "name": "amount",
          "type": "uint256"
        },
        {
          "internalType": "uint256",
          "name": "timestamp",
          "type": "uint256"
        },
        {
          "internalType": "bool",
          "name": "isRefunded",
          "type": "bool"
        },
        {
          "internalType": "string",
          "name": "hotelId",
          "type": "string"
        },
        {
          "internalType": "string",
          "name": "roomId",
          "type": "string"
        },
        {
          "internalType": "uint256",
          "name": "checkIn",
          "type": "uint256"
        },
        {
          "internalType": "uint256",
          "name": "checkOut",
          "type": "uint256"
        }
      ],
      "stateMutability": "view",
      "type": "function"
    },
    {
      "inputs": [],
      "name": "failedTransactions",
      "outputs": [
        {
          "internalType": "uint256",
          "name": "",
          "type": "uint256"
        }
      ],
      "stateMutability": "view",
      "type": "function"
    },
    {
      "inputs": [
        {
          "internalType": "string",
          "name": "bookingId",
          "type": "string"
        }
      ],
      "name": "getBookingDetails",
      "outputs": [
        {
          "internalType": "address",
          "name": "guest",
          "type": "address"
        },
        {
          "internalType": "uint256",
          "name": "amount",
          "type": "uint256"
        },
        {
          "internalType": "uint256",
          "name": "timestamp",
          "type": "uint256"
        },
        {
          "internalType": "bool",
          "name": "isRefunded",
          "type": "bool"
        },
        {
          "internalType": "string",
          "name": "hotelId",
          "type": "string"
        },
        {
          "internalType": "string",
          "name": "roomId",
          "type": "string"
        },
        {
          "internalType": "uint256",
          "name": "checkIn",
          "type": "uint256"
        },
        {
          "internalType": "uint256",
          "name": "checkOut",
          "type": "uint256"
        }
      ],
      "stateMutability": "view",
      "type": "function"
    },
    {
      "inputs": [],
      "name": "getFailedTransactions",
      "outputs": [
        {
          "internalType": "uint256",
          "name": "",
          "type": "uint256"
        }
      ],
      "stateMutability": "view",
      "type": "function"
    },
    {
      "inputs": [
        {
          "internalType": "address",
          "name": "guest",
          "type": "address"
        }
      ],
      "name": "getGuestBookings",
      "outputs": [
        {
          "internalType": "string[]",
          "name": "",
          "type": "string[]"
        }
      ],
      "stateMutability": "view",
      "type": "function"
    },
    {
      "inputs": [],
      "name": "getPendingRefunds",
      "outputs": [
        {
          "internalType": "uint256",
          "name": "",
          "type": "uint256"
        }
      ],
      "stateMutability": "view",
      "type": "function"
    },
    {
      "inputs": [],
      "name": "getTotalRevenue",
      "outputs": [
        {
          "internalType": "uint256",
          "name": "",
          "type": "uint256"
        }
      ],
      "stateMutability": "view",
      "type": "function"
    },
    {
      "inputs": [],
      "name": "getTotalTransactions",
      "outputs": [
        {
          "internalType": "uint256",
          "name": "",
          "type": "uint256"
        }
      ],
      "stateMutability": "view",
      "type": "function"
    },
    {
      "inputs": [
        {
          "internalType": "address",
          "name": "",
          "type": "address"
        },
        {
          "internalType": "uint256",
          "name": "",
          "type": "uint256"
        }
      ],
      "name": "guestBookings",
      "outputs": [
        {
          "internalType": "string",
          "name": "",
          "type": "string"
        }
      ],
      "stateMutability": "view",
      "type": "function"
    },
    {
      "inputs": [],
      "name": "owner",
      "outputs": [
        {
          "internalType": "address",
          "name": "",
          "type": "address"
        }
      ],
      "stateMutability": "view",
      "type": "function"
    },
    {
      "inputs": [],
      "name": "paymentToken",
      "outputs": [
        {
          "internalType": "contract IERC20",
          "name": "",
          "type": "address"
        }
      ],
      "stateMutability": "view",
      "type": "function"
    },
    {
      "inputs": [],
      "name": "pendingRefunds",
      "outputs": [
        {
          "internalType": "uint256",
          "name": "",
          "type": "uint256"
        }
      ],
      "stateMutability": "view",
      "type": "function"
    },
    {
      "inputs": [
        {
          "internalType": "string",
          "name": "bookingId",
          "type": "string"
        }
      ],
      "name": "processRefund",
      "outputs": [],
      "stateMutability": "nonpayable",
      "type": "function"
    },
    {
      "inputs": [
        {
          "internalType": "address",
          "name": "guest",
          "type": "address"
        },
        {
          "internalType": "uint256",
          "name": "amount",
          "type": "uint256"
        },
        {
          "internalType": "string",
          "name": "reason",
          "type": "string"
        }
      ],
      "name": "recordFailedTransaction",
      "outputs": [],
      "stateMutability": "nonpayable",
      "type": "function"
    },
    {
      "inputs": [],
      "name": "renounceOwnership",
      "outputs": [],
      "stateMutability": "nonpayable",
      "type": "function"
    },
    {
      "inputs": [
        {
          "internalType": "string",
          "name": "",
          "type": "string"
        },
        {
          "internalType": "uint256",
          "name": "",
          "type": "uint256"
        }
      ],
      "name": "roomAvailability",
      "outputs": [
        {
          "internalType": "bool",
          "name": "",
          "type": "bool"
        }
      ],
      "stateMutability": "view",
      "type": "function"
    },
    {
      "inputs": [],
      "name": "totalRevenue",
      "outputs": [
        {
          "internalType": "uint256",
          "name": "",
          "type": "uint256"
        }
      ],
      "stateMutability": "view",
      "type": "function"
    },
    {
      "inputs": [],
      "name": "totalTransactions",
      "outputs": [
        {
          "internalType": "uint256",
          "name": "",
          "type": "uint256"
        }
      ],
      "stateMutability": "view",
      "type": "function"
    },
    {
      "inputs": [
        {
          "internalType": "address",
          "name": "newOwner",
          "type": "address"
        }
      ],
      "name": "transferOwnership",
      "outputs": [],
      "stateMutability": "nonpayable",
      "type": "function"
    },
    {
      "inputs": [
        {
          "internalType": "address",
          "name": "newToken",
          "type": "address"
        }
      ],
      "name": "updatePaymentToken",
      "outputs": [],
      "stateMutability": "nonpayable",
      "type": "function"
    },
    {
      "inputs": [
        {
          "internalType": "address",
          "name": "token",
          "type": "address"
        },
        {
          "internalType": "uint256",
          "name": "amount",
          "type": "uint256"
        }
      ],
      "name": "withdrawTokens",
      "outputs": [],
      "stateMutability": "nonpayable",
      "type": "function"
    }
  ],
  "bytecode": "0x608060405234801561001057600080fd5b50604051611a73380380611a7383398101604081905261002f916100b1565b61003833610061565b60018055600280546001600160a01b0319166001600160a01b03929092169190911790556100e1565b600080546001600160a01b038381166001600160a01b0319831681178455604051919092169283917f8be0079c531659141344cd1fd0a4f28419497f9722a3daafe3b4186f6b6457e09190a35050565b6000602082840312156100c357600080fd5b81516001600160a01b03811681146100da57600080fd5b9392505050565b611983806100f06000396000f3fe608060405234801561001057600080fd5b50600436106101425760003560e01c8063715018a6116100b8578063b5c604ff1161007c578063b5c604ff146102c7578063b9a60038146102cf578063bf2d9e0b146102d8578063da3db8c5146102e1578063ee3efd58146102f4578063f2fde38b1461030757600080fd5b8063715018a61461027d57806376401410146102855780638da5cb5b1461028e578063957fae961461029f578063a41cfa69146102a757600080fd5b80634bf7fb8e1161010a5780634bf7fb8e146101f55780634ccf1b34146101fd578063502bf35e1461021057806351164f091461023757806355adf45a1461024a57806363809aef1461025d57600080fd5b806306b091f91461014757806319fc121f1461015c5780633013ce29146101735780634b5739ad1461019e5780634bef4459146101a7575b600080fd5b61015a61015536600461127d565b61031a565b005b6005545b6040519081526020015b60405180910390f35b600254610186906001600160a01b031681565b6040516001600160a01b03909116815260200161016a565b61016060065481565b6101e56101b536600461134a565b81516020818401810180516009825292820194820194909420919093529091526000908152604090205460ff1681565b604051901515815260200161016a565b600654610160565b61015a61020b36600461138f565b6103fb565b61022361021e3660046113b1565b610473565b60405161016a98979695949392919061143e565b6102236102453660046113b1565b6105df565b61015a6102583660046114a0565b6107cd565b61027061026b36600461138f565b61082c565b60405161016a91906114f7565b61015a61091b565b61016060055481565b6000546001600160a01b0316610186565b600454610160565b6102ba6102b536600461127d565b61092f565b60405161016a9190611559565b600354610160565b61016060035481565b61016060045481565b61015a6102ef36600461156c565b6109e8565b61015a6103023660046113b1565b610e5c565b61015a61031536600461138f565b6110e8565b61032261115e565b816001600160a01b031663a9059cbb6103436000546001600160a01b031690565b6040516001600160e01b031960e084901b1681526001600160a01b039091166004820152602481018490526044016020604051808303816000875af1158015610390573d6000803e3d6000fd5b505050506040513d601f19601f820116820180604052508101906103b49190611610565b6103f75760405162461bcd60e51b815260206004820152600f60248201526e151c985b9cd9995c8819985a5b1959608a1b60448201526064015b60405180910390fd5b5050565b61040361115e565b6001600160a01b0381166104515760405162461bcd60e51b8152602060048201526015602482015274496e76616c696420746f6b656e206164647265737360581b60448201526064016103ee565b600280546001600160a01b0319166001600160a01b0392909216919091179055565b8051602081830181018051600782529282019190930120915280546001820154600283015460038401546004850180546001600160a01b03909516959394929360ff909216926104c290611632565b80601f01602080910402602001604051908101604052809291908181526020018280546104ee90611632565b801561053b5780601f106105105761010080835404028352916020019161053b565b820191906000526020600020905b81548152906001019060200180831161051e57829003601f168201915b50505050509080600501805461055090611632565b80601f016020809104026020016040519081016040528092919081815260200182805461057c90611632565b80156105c95780601f1061059e576101008083540402835291602001916105c9565b820191906000526020600020905b8154815290600101906020018083116105ac57829003601f168201915b5050505050908060060154908060070154905088565b600080600080606080600080600060078a6040516105fd919061166c565b9081526040805191829003602090810183206101008401835280546001600160a01b03168452600181015491840191909152600281015491830191909152600381015460ff161515606083015260048101805460808401919061065f90611632565b80601f016020809104026020016040519081016040528092919081815260200182805461068b90611632565b80156106d85780601f106106ad576101008083540402835291602001916106d8565b820191906000526020600020905b8154815290600101906020018083116106bb57829003601f168201915b505050505081526020016005820180546106f190611632565b80601f016020809104026020016040519081016040528092919081815260200182805461071d90611632565b801561076a5780601f1061073f5761010080835404028352916020019161076a565b820191906000526020600020905b81548152906001019060200180831161074d57829003601f168201915b50505050508152602001600682015481526020016007820154815250509050806000015181602001518260400151836060015184608001518560a001518660c001518760e001519850985098509850985098509850985050919395975091939597565b6107d561115e565b600680549060006107e58361169e565b91905055507fbb2a72a0121a7027c22fcf5cd9e6ac09f0db9ac7c6663b6a4219a401952533858383428460405161081f94939291906116b7565b60405180910390a1505050565b6001600160a01b0381166000908152600860209081526040808320805482518185028101850190935280835260609492939192909184015b8282101561091057838290600052602060002001805461088390611632565b80601f01602080910402602001604051908101604052809291908181526020018280546108af90611632565b80156108fc5780601f106108d1576101008083540402835291602001916108fc565b820191906000526020600020905b8154815290600101906020018083116108df57829003601f168201915b505050505081526020019060010190610864565b505050509050919050565b61092361115e565b61092d60006111b8565b565b6008602052816000526040600020818154811061094b57600080fd5b9060005260206000200160009150915050805461096790611632565b80601f016020809104026020016040519081016040528092919081815260200182805461099390611632565b80156109e05780601f106109b5576101008083540402835291602001916109e0565b820191906000526020600020905b8154815290600101906020018083116109c357829003601f168201915b505050505081565b6109f0611208565b6000865111610a365760405162461bcd60e51b8152602060048201526012602482015271125b9d985b1a5908189bdbdada5b99c8125160721b60448201526064016103ee565b60008311610a775760405162461bcd60e51b815260206004820152600e60248201526d125b9d985b1a5908185b5bdd5b9d60921b60448201526064016103ee565b808210610ab65760405162461bcd60e51b815260206004820152600d60248201526c496e76616c696420646174657360981b60448201526064016103ee565b600786604051610ac6919061166c565b908152602001604051809103902060020154600014610b275760405162461bcd60e51b815260206004820152601960248201527f426f6f6b696e6720494420616c7265616479206578697374730000000000000060448201526064016103ee565b815b81811015610c0957600985604051610b41919061166c565b90815260408051602092819003830190206000848152925290205460ff1615610bba5760405162461bcd60e51b815260206004820152602560248201527f526f6f6d206e6f7420617661696c61626c6520666f722073656c656374656420604482015264646174657360d81b60648201526084016103ee565b6001600986604051610bcc919061166c565b9081526040805160209281900383019020600085815292529020805460ff1916911515919091179055610c0262015180826116ee565b9050610b29565b506002546040516323b872dd60e01b8152336004820152306024820152604481018590526000916001600160a01b0316906323b872dd906064016020604051808303816000875af1158015610c62573d6000803e3d6000fd5b505050506040513d601f19601f82011682018060405250810190610c869190611610565b905080610cc65760405162461bcd60e51b815260206004820152600e60248201526d14185e5b595b9d0819985a5b195960921b60448201526064016103ee565b604051806101000160405280336001600160a01b0316815260200185815260200142815260200160001515815260200187815260200186815260200184815260200183815250600788604051610d1c919061166c565b9081526040805160209281900383019020835181546001600160a01b0319166001600160a01b039091161781559183015160018301558201516002820155606082015160038201805460ff191691151591909117905560808201516004820190610d869082611752565b5060a08201516005820190610d9b9082611752565b5060c0820151600682015560e09091015160079091015533600090815260086020908152604082208054600181018255908352912001610ddb8882611752565b5060038054906000610dec8361169e565b91905055508360046000828254610e0391906116ee565b90915550506040517f943df4f2fa441cd21384aab58f08fd272218f663810cb3c04b7d9898578eea2f90610e429089903390889042908c908c90611812565b60405180910390a150610e5460018055565b505050505050565b610e6461115e565b610e6c611208565b6000600782604051610e7e919061166c565b908152602001604051809103902090506000816002015411610ed65760405162461bcd60e51b8152602060048201526011602482015270109bdbdada5b99c81b9bdd08199bdd5b99607a1b60448201526064016103ee565b600381015460ff1615610f1e5760405162461bcd60e51b815260206004820152601060248201526f105b1c9958591e481c99599d5b99195960821b60448201526064016103ee565b6002548154600183015460405163a9059cbb60e01b81526001600160a01b0392831660048201526024810191909152600092919091169063a9059cbb906044016020604051808303816000875af1158015610f7d573d6000803e3d6000fd5b505050506040513d601f19601f82011682018060405250810190610fa19190611610565b905080610fe95760405162461bcd60e51b81526020600482015260166024820152751499599d5b99081d1c985b9cd9995c8819985a5b195960521b60448201526064016103ee565b60038201805460ff1916600117905560068201545b826007015481101561105c57600060098460050160405161101f9190611875565b9081526040805160209281900383019020600085815292529020805460ff191691151591909117905561105562015180826116ee565b9050610ffe565b5081600101546004600082825461107391906118eb565b909155505060058054906000611088836118fe565b9091555050815460018301546040517f512b6116886bf2909f39ac5b4fc712283d8fc8957d50951dfbaad4e7606a0fe1926110d29287926001600160a01b03909216914290611915565b60405180910390a150506110e560018055565b50565b6110f061115e565b6001600160a01b0381166111555760405162461bcd60e51b815260206004820152602660248201527f4f776e61626c653a206e6577206f776e657220697320746865207a65726f206160448201526564647265737360d01b60648201526084016103ee565b6110e5816111b8565b6000546001600160a01b0316331461092d5760405162461bcd60e51b815260206004820181905260248201527f4f776e61626c653a2063616c6c6572206973206e6f7420746865206f776e657260448201526064016103ee565b600080546001600160a01b038381166001600160a01b0319831681178455604051919092169283917f8be0079c531659141344cd1fd0a4f28419497f9722a3daafe3b4186f6b6457e09190a35050565b60026001540361125a5760405162461bcd60e51b815260206004820152601f60248201527f5265656e7472616e637947756172643a207265656e7472616e742063616c6c0060448201526064016103ee565b6002600155565b80356001600160a01b038116811461127857600080fd5b919050565b6000806040838503121561129057600080fd5b61129983611261565b946020939093013593505050565b634e487b7160e01b600052604160045260246000fd5b600082601f8301126112ce57600080fd5b813567ffffffffffffffff808211156112e9576112e96112a7565b604051601f8301601f19908116603f01168101908282118183101715611311576113116112a7565b8160405283815286602085880101111561132a57600080fd5b836020870160208301376000602085830101528094505050505092915050565b6000806040838503121561135d57600080fd5b823567ffffffffffffffff81111561137457600080fd5b611380858286016112bd565b95602094909401359450505050565b6000602082840312156113a157600080fd5b6113aa82611261565b9392505050565b6000602082840312156113c357600080fd5b813567ffffffffffffffff8111156113da57600080fd5b6113e6848285016112bd565b949350505050565b60005b838110156114095781810151838201526020016113f1565b50506000910152565b6000815180845261142a8160208601602086016113ee565b601f01601f19169290920160200192915050565b600061010060018060a01b038b168352896020840152886040840152871515606084015280608084015261147481840188611412565b905082810360a08401526114888187611412565b60c0840195909552505060e001529695505050505050565b6000806000606084860312156114b557600080fd5b6114be84611261565b925060208401359150604084013567ffffffffffffffff8111156114e157600080fd5b6114ed868287016112bd565b9150509250925092565b6000602080830181845280855180835260408601915060408160051b870101925083870160005b8281101561154c57603f1988860301845261153a858351611412565b9450928501929085019060010161151e565b5092979650505050505050565b6020815260006113aa6020830184611412565b60008060008060008060c0878903121561158557600080fd5b863567ffffffffffffffff8082111561159d57600080fd5b6115a98a838b016112bd565b975060208901359150808211156115bf57600080fd5b6115cb8a838b016112bd565b965060408901359150808211156115e157600080fd5b506115ee89828a016112bd565b945050606087013592506080870135915060a087013590509295509295509295565b60006020828403121561162257600080fd5b815180151581146113aa57600080fd5b600181811c9082168061164657607f821691505b60208210810361166657634e487b7160e01b600052602260045260246000fd5b50919050565b6000825161167e8184602087016113ee565b9190910192915050565b634e487b7160e01b600052601160045260246000fd5b6000600182016116b0576116b0611688565b5060010190565b60018060a01b03851681528360208201528260408201526080606082015260006116e46080830184611412565b9695505050505050565b8082018082111561170157611701611688565b92915050565b601f82111561174d57600081815260208120601f850160051c8101602086101561172e5750805b601f850160051c820191505b81811015610e545782815560010161173a565b505050565b815167ffffffffffffffff81111561176c5761176c6112a7565b6117808161177a8454611632565b84611707565b602080601f8311600181146117b5576000841561179d5750858301515b600019600386901b1c1916600185901b178555610e54565b600085815260208120601f198616915b828110156117e4578886015182559484019460019091019084016117c5565b50858210156118025787850151600019600388901b60f8161c191681555b5050505050600190811b01905550565b60c08152600061182560c0830189611412565b6001600160a01b0388166020840152604083018790526060830186905282810360808401526118548186611412565b905082810360a08401526118688185611412565b9998505050505050505050565b600080835461188381611632565b6001828116801561189b57600181146118b0576118df565b60ff19841687528215158302870194506118df565b8760005260208060002060005b858110156118d65781548a8201529084019082016118bd565b50505082870194505b50929695505050505050565b8181038181111561170157611701611688565b60008161190d5761190d611688565b506000190190565b6080815260006119286080830187611412565b6001600160a01b0395909516602083015250604081019290925260609091015291905056fea264697066735822122087bdeba56051ae99970cf1d4bf158eb9fef12ebdd3bf6c461ff841f0d28afbcf64736f6c63430008130033",
  "linkReferences": {},
  "deployedLinkReferences": {}
}